{
  "contractName": "Decentragram",
  "abi": [
    {
      "inputs": [],
      "stateMutability": "nonpayable",
      "type": "constructor"
    },
    {
      "anonymous": false,
      "inputs": [
        {
          "indexed": false,
          "internalType": "uint256",
          "name": "id",
          "type": "uint256"
        },
        {
          "indexed": false,
          "internalType": "string",
          "name": "hash",
          "type": "string"
        },
        {
          "indexed": false,
          "internalType": "string",
          "name": "category",
          "type": "string"
        },
        {
          "indexed": false,
          "internalType": "string",
          "name": "description",
          "type": "string"
        },
        {
          "indexed": false,
          "internalType": "uint256",
          "name": "tipAmount",
          "type": "uint256"
        },
        {
          "indexed": false,
          "internalType": "address payable",
          "name": "author",
          "type": "address"
        }
      ],
      "name": "ImageCreated",
      "type": "event"
    },
    {
      "anonymous": false,
      "inputs": [
        {
          "indexed": false,
          "internalType": "uint256",
          "name": "id",
          "type": "uint256"
        },
        {
          "indexed": false,
          "internalType": "string",
          "name": "hash",
          "type": "string"
        },
        {
          "indexed": false,
          "internalType": "string",
          "name": "description",
          "type": "string"
        },
        {
          "indexed": false,
          "internalType": "uint256",
          "name": "tipAmount",
          "type": "uint256"
        },
        {
          "indexed": false,
          "internalType": "address payable",
          "name": "author",
          "type": "address"
        }
      ],
      "name": "ImageTipped",
      "type": "event"
    },
    {
      "inputs": [
        {
          "internalType": "address",
          "name": "",
          "type": "address"
        },
        {
          "internalType": "uint256",
          "name": "",
          "type": "uint256"
        }
      ],
      "name": "followers",
      "outputs": [
        {
          "internalType": "address",
          "name": "",
          "type": "address"
        }
      ],
      "stateMutability": "view",
      "type": "function",
      "constant": true
    },
    {
      "inputs": [
        {
          "internalType": "address",
          "name": "",
          "type": "address"
        }
      ],
      "name": "followersCount",
      "outputs": [
        {
          "internalType": "uint256",
          "name": "",
          "type": "uint256"
        }
      ],
      "stateMutability": "view",
      "type": "function",
      "constant": true
    },
    {
      "inputs": [
        {
          "internalType": "address",
          "name": "",
          "type": "address"
        },
        {
          "internalType": "uint256",
          "name": "",
          "type": "uint256"
        }
      ],
      "name": "following",
      "outputs": [
        {
          "internalType": "address",
          "name": "",
          "type": "address"
        }
      ],
      "stateMutability": "view",
      "type": "function",
      "constant": true
    },
    {
      "inputs": [
        {
          "internalType": "address",
          "name": "",
          "type": "address"
        }
      ],
      "name": "followingCount",
      "outputs": [
        {
          "internalType": "uint256",
          "name": "",
          "type": "uint256"
        }
      ],
      "stateMutability": "view",
      "type": "function",
      "constant": true
    },
    {
      "inputs": [],
      "name": "imageCount",
      "outputs": [
        {
          "internalType": "uint256",
          "name": "",
          "type": "uint256"
        }
      ],
      "stateMutability": "view",
      "type": "function",
      "constant": true
    },
    {
      "inputs": [
        {
          "internalType": "uint256",
          "name": "",
          "type": "uint256"
        }
      ],
      "name": "images",
      "outputs": [
        {
          "internalType": "uint256",
          "name": "id",
          "type": "uint256"
        },
        {
          "internalType": "string",
          "name": "hash",
          "type": "string"
        },
        {
          "internalType": "string",
          "name": "category",
          "type": "string"
        },
        {
          "internalType": "string",
          "name": "description",
          "type": "string"
        },
        {
          "internalType": "uint256",
          "name": "tipAmount",
          "type": "uint256"
        },
        {
          "internalType": "address payable",
          "name": "author",
          "type": "address"
        }
      ],
      "stateMutability": "view",
      "type": "function",
      "constant": true
    },
    {
      "inputs": [],
      "name": "name",
      "outputs": [
        {
          "internalType": "string",
          "name": "",
          "type": "string"
        }
      ],
      "stateMutability": "view",
      "type": "function",
      "constant": true
    },
    {
      "inputs": [
        {
          "internalType": "uint256",
          "name": "",
          "type": "uint256"
        }
      ],
      "name": "tipCount",
      "outputs": [
        {
          "internalType": "uint256",
          "name": "",
          "type": "uint256"
        }
      ],
      "stateMutability": "view",
      "type": "function",
      "constant": true
    },
    {
      "inputs": [
        {
          "internalType": "uint256",
          "name": "",
          "type": "uint256"
        },
        {
          "internalType": "uint256",
          "name": "",
          "type": "uint256"
        }
      ],
      "name": "tips",
      "outputs": [
        {
          "internalType": "uint256",
          "name": "amount",
          "type": "uint256"
        },
        {
          "internalType": "address",
          "name": "tipper",
          "type": "address"
        }
      ],
      "stateMutability": "view",
      "type": "function",
      "constant": true
    },
    {
      "inputs": [
        {
          "internalType": "address",
          "name": "followingAddress",
          "type": "address"
        }
      ],
      "name": "followSingle",
      "outputs": [],
      "stateMutability": "nonpayable",
      "type": "function"
    },
    {
      "inputs": [
        {
          "internalType": "string",
          "name": "_imgHash",
          "type": "string"
        },
        {
          "internalType": "string",
          "name": "_description",
          "type": "string"
        },
        {
          "internalType": "string",
          "name": "_category",
          "type": "string"
        }
      ],
      "name": "uploadImage",
      "outputs": [],
      "stateMutability": "nonpayable",
      "type": "function"
    },
    {
      "inputs": [
        {
          "internalType": "uint256",
          "name": "_id",
          "type": "uint256"
        }
      ],
      "name": "tipImageOwner",
      "outputs": [],
      "stateMutability": "payable",
      "type": "function",
      "payable": true
    }
  ],
  "bytecode": "0x608060405260006001553480156200001657600080fd5b506040518060400160405280600c81526020017f446563656e7472616772616d000000000000000000000000000000000000000081525060009080519060200190620000649291906200006b565b5062000180565b82805462000079906200014a565b90600052602060002090601f0160209004810192826200009d5760008555620000e9565b82601f10620000b857805160ff1916838001178555620000e9565b82800160010185558215620000e9579182015b82811115620000e8578251825591602001919060010190620000cb565b5b509050620000f89190620000fc565b5090565b5b8082111562000117576000816000905550600101620000fd565b5090565b7f4e487b7100000000000000000000000000000000000000000000000000000000600052602260045260246000fd5b600060028204905060018216806200016357607f821691505b602082108114156200017a57620001796200011b565b5b50919050565b61193380620001906000396000f3fe6080604052600436106100a75760003560e01c80639139cda5116100645780639139cda5146101d857806392053b6314610215578063992a6b2614610240578063cec23a471461027d578063ebd009d3146102a6578063f1094ffe146102e3576100a7565b806306fdde03146100ac57806314b6bfbc146100d75780636454870714610114578063719fbf2614610151578063848564821461017a5780638567ade8146101bc575b600080fd5b3480156100b857600080fd5b506100c1610321565b6040516100ce9190611146565b60405180910390f35b3480156100e357600080fd5b506100fe60048036038101906100f991906111b2565b6103af565b60405161010b91906111ee565b60405180910390f35b34801561012057600080fd5b5061013b60048036038101906101369190611267565b6103c7565b60405161014891906111ee565b60405180910390f35b34801561015d57600080fd5b5061017860048036038101906101739190611267565b6103df565b005b34801561018657600080fd5b506101a1600480360381019061019c91906111b2565b610640565b6040516101b3969594939291906112b5565b60405180910390f35b6101d660048036038101906101d191906111b2565b610834565b005b3480156101e457600080fd5b506101ff60048036038101906101fa919061132b565b610cf6565b60405161020c919061137a565b60405180910390f35b34801561022157600080fd5b5061022a610d44565b60405161023791906111ee565b60405180910390f35b34801561024c57600080fd5b5061026760048036038101906102629190611267565b610d4a565b60405161027491906111ee565b60405180910390f35b34801561028957600080fd5b506102a4600480360381019061029f91906114ca565b610d62565b005b3480156102b257600080fd5b506102cd60048036038101906102c8919061132b565b610f5b565b6040516102da919061137a565b60405180910390f35b3480156102ef57600080fd5b5061030a60048036038101906103059190611571565b610fa9565b6040516103189291906115b1565b60405180910390f35b6000805461032e90611609565b80601f016020809104026020016040519081016040528092919081815260200182805461035a90611609565b80156103a75780601f1061037c576101008083540402835291602001916103a7565b820191906000526020600020905b81548152906001019060200180831161038a57829003601f168201915b505050505081565b60046020528060005260406000206000915090505481565b60056020528060005260406000206000915090505481565b6001600360008373ffffffffffffffffffffffffffffffffffffffff1673ffffffffffffffffffffffffffffffffffffffff1681526020019081526020016000205461042b919061166a565b600360008373ffffffffffffffffffffffffffffffffffffffff1673ffffffffffffffffffffffffffffffffffffffff16815260200190815260200160002081905550600660008273ffffffffffffffffffffffffffffffffffffffff1673ffffffffffffffffffffffffffffffffffffffff168152602001908152602001600020339080600181540180825580915050600190039060005260206000200160009091909190916101000a81548173ffffffffffffffffffffffffffffffffffffffff021916908373ffffffffffffffffffffffffffffffffffffffff1602179055506001600560003373ffffffffffffffffffffffffffffffffffffffff1673ffffffffffffffffffffffffffffffffffffffff1681526020019081526020016000205461055a919061166a565b600560003373ffffffffffffffffffffffffffffffffffffffff1673ffffffffffffffffffffffffffffffffffffffff16815260200190815260200160002081905550600760003373ffffffffffffffffffffffffffffffffffffffff1673ffffffffffffffffffffffffffffffffffffffff168152602001908152602001600020819080600181540180825580915050600190039060005260206000200160009091909190916101000a81548173ffffffffffffffffffffffffffffffffffffffff021916908373ffffffffffffffffffffffffffffffffffffffff16021790555050565b600260205280600052604060002060009150905080600001549080600101805461066990611609565b80601f016020809104026020016040519081016040528092919081815260200182805461069590611609565b80156106e25780601f106106b7576101008083540402835291602001916106e2565b820191906000526020600020905b8154815290600101906020018083116106c557829003601f168201915b5050505050908060020180546106f790611609565b80601f016020809104026020016040519081016040528092919081815260200182805461072390611609565b80156107705780601f1061074557610100808354040283529160200191610770565b820191906000526020600020905b81548152906001019060200180831161075357829003601f168201915b50505050509080600301805461078590611609565b80601f01602080910402602001604051908101604052809291908181526020018280546107b190611609565b80156107fe5780601f106107d3576101008083540402835291602001916107fe565b820191906000526020600020905b8154815290600101906020018083116107e157829003601f168201915b5050505050908060040154908060050160009054906101000a900473ffffffffffffffffffffffffffffffffffffffff16905086565b60008111801561084657506001548111155b61084f57600080fd5b6000600260008381526020019081526020016000206040518060c00160405290816000820154815260200160018201805461088990611609565b80601f01602080910402602001604051908101604052809291908181526020018280546108b590611609565b80156109025780601f106108d757610100808354040283529160200191610902565b820191906000526020600020905b8154815290600101906020018083116108e557829003601f168201915b5050505050815260200160028201805461091b90611609565b80601f016020809104026020016040519081016040528092919081815260200182805461094790611609565b80156109945780601f1061096957610100808354040283529160200191610994565b820191906000526020600020905b81548152906001019060200180831161097757829003601f168201915b505050505081526020016003820180546109ad90611609565b80601f01602080910402602001604051908101604052809291908181526020018280546109d990611609565b8015610a265780601f106109fb57610100808354040283529160200191610a26565b820191906000526020600020905b815481529060010190602001808311610a0957829003601f168201915b50505050508152602001600482015481526020016005820160009054906101000a900473ffffffffffffffffffffffffffffffffffffffff1673ffffffffffffffffffffffffffffffffffffffff1673ffffffffffffffffffffffffffffffffffffffff1681525050905060008160a0015190508073ffffffffffffffffffffffffffffffffffffffff166108fc349081150290604051600060405180830381858888f19350505050158015610ae0573d6000803e3d6000fd5b50348260800151610af1919061166a565b8260800181815250508160026000858152602001908152602001600020600082015181600001556020820151816001019080519060200190610b3492919061100a565b506040820151816002019080519060200190610b5192919061100a565b506060820151816003019080519060200190610b6e92919061100a565b506080820151816004015560a08201518160050160006101000a81548173ffffffffffffffffffffffffffffffffffffffff021916908373ffffffffffffffffffffffffffffffffffffffff1602179055509050506008600084815260200190815260200160002060405180604001604052803481526020013373ffffffffffffffffffffffffffffffffffffffff1681525090806001815401808255809150506001900390600052602060002090600202016000909190919091506000820151816000015560208201518160010160006101000a81548173ffffffffffffffffffffffffffffffffffffffff021916908373ffffffffffffffffffffffffffffffffffffffff1602179055505050600460008481526020019081526020016000206000815480929190610ca1906116c0565b91905055507f1be5317bca8d3f70dc1efe89958be71bff36cdca33fc00a6423e25eb2f1d492f8383602001518460600151856080015185604051610ce9959493929190611709565b60405180910390a1505050565b60076020528160005260406000208181548110610d1257600080fd5b906000526020600020016000915091509054906101000a900473ffffffffffffffffffffffffffffffffffffffff1681565b60015481565b60036020528060005260406000206000915090505481565b6000835111610da6576040517f08c379a0000000000000000000000000000000000000000000000000000000008152600401610d9d906117b6565b60405180910390fd5b6000825111610dea576040517f08c379a0000000000000000000000000000000000000000000000000000000008152600401610de190611822565b60405180910390fd5b60016000815480929190610dfd906116c0565b91905055506040518060c001604052806001548152602001848152602001828152602001838152602001600081526020013373ffffffffffffffffffffffffffffffffffffffff16815250600260006001548152602001908152602001600020600082015181600001556020820151816001019080519060200190610e8392919061100a565b506040820151816002019080519060200190610ea092919061100a565b506060820151816003019080519060200190610ebd92919061100a565b506080820151816004015560a08201518160050160006101000a81548173ffffffffffffffffffffffffffffffffffffffff021916908373ffffffffffffffffffffffffffffffffffffffff1602179055509050507f0919451463723a9fa34d74bd0c38b33a6180cc7dc1c03e6833a3dccbe110d730600154848385600033604051610f4e96959493929190611887565b60405180910390a1505050565b60066020528160005260406000208181548110610f7757600080fd5b906000526020600020016000915091509054906101000a900473ffffffffffffffffffffffffffffffffffffffff1681565b60086020528160005260406000208181548110610fc557600080fd5b9060005260206000209060020201600091509150508060000154908060010160009054906101000a900473ffffffffffffffffffffffffffffffffffffffff16905082565b82805461101690611609565b90600052602060002090601f016020900481019282611038576000855561107f565b82601f1061105157805160ff191683800117855561107f565b8280016001018555821561107f579182015b8281111561107e578251825591602001919060010190611063565b5b50905061108c9190611090565b5090565b5b808211156110a9576000816000905550600101611091565b5090565b600081519050919050565b600082825260208201905092915050565b60005b838110156110e75780820151818401526020810190506110cc565b838111156110f6576000848401525b50505050565b6000601f19601f8301169050919050565b6000611118826110ad565b61112281856110b8565b93506111328185602086016110c9565b61113b816110fc565b840191505092915050565b60006020820190508181036000830152611160818461110d565b905092915050565b6000604051905090565b600080fd5b600080fd5b6000819050919050565b61118f8161117c565b811461119a57600080fd5b50565b6000813590506111ac81611186565b92915050565b6000602082840312156111c8576111c7611172565b5b60006111d68482850161119d565b91505092915050565b6111e88161117c565b82525050565b600060208201905061120360008301846111df565b92915050565b600073ffffffffffffffffffffffffffffffffffffffff82169050919050565b600061123482611209565b9050919050565b61124481611229565b811461124f57600080fd5b50565b6000813590506112618161123b565b92915050565b60006020828403121561127d5761127c611172565b5b600061128b84828501611252565b91505092915050565b600061129f82611209565b9050919050565b6112af81611294565b82525050565b600060c0820190506112ca60008301896111df565b81810360208301526112dc818861110d565b905081810360408301526112f0818761110d565b90508181036060830152611304818661110d565b905061131360808301856111df565b61132060a08301846112a6565b979650505050505050565b6000806040838503121561134257611341611172565b5b600061135085828601611252565b92505060206113618582860161119d565b9150509250929050565b61137481611229565b82525050565b600060208201905061138f600083018461136b565b92915050565b600080fd5b600080fd5b7f4e487b7100000000000000000000000000000000000000000000000000000000600052604160045260246000fd5b6113d7826110fc565b810181811067ffffffffffffffff821117156113f6576113f561139f565b5b80604052505050565b6000611409611168565b905061141582826113ce565b919050565b600067ffffffffffffffff8211156114355761143461139f565b5b61143e826110fc565b9050602081019050919050565b82818337600083830152505050565b600061146d6114688461141a565b6113ff565b9050828152602081018484840111156114895761148861139a565b5b61149484828561144b565b509392505050565b600082601f8301126114b1576114b0611395565b5b81356114c184826020860161145a565b91505092915050565b6000806000606084860312156114e3576114e2611172565b5b600084013567ffffffffffffffff81111561150157611500611177565b5b61150d8682870161149c565b935050602084013567ffffffffffffffff81111561152e5761152d611177565b5b61153a8682870161149c565b925050604084013567ffffffffffffffff81111561155b5761155a611177565b5b6115678682870161149c565b9150509250925092565b6000806040838503121561158857611587611172565b5b60006115968582860161119d565b92505060206115a78582860161119d565b9150509250929050565b60006040820190506115c660008301856111df565b6115d3602083018461136b565b9392505050565b7f4e487b7100000000000000000000000000000000000000000000000000000000600052602260045260246000fd5b6000600282049050600182168061162157607f821691505b60208210811415611635576116346115da565b5b50919050565b7f4e487b7100000000000000000000000000000000000000000000000000000000600052601160045260246000fd5b60006116758261117c565b91506116808361117c565b9250827fffffffffffffffffffffffffffffffffffffffffffffffffffffffffffffffff038211156116b5576116b461163b565b5b828201905092915050565b60006116cb8261117c565b91507fffffffffffffffffffffffffffffffffffffffffffffffffffffffffffffffff8214156116fe576116fd61163b565b5b600182019050919050565b600060a08201905061171e60008301886111df565b8181036020830152611730818761110d565b90508181036040830152611744818661110d565b905061175360608301856111df565b61176060808301846112a6565b9695505050505050565b7f496d6167652073686f756c64206e6f74206265206e756c6c0000000000000000600082015250565b60006117a06018836110b8565b91506117ab8261176a565b602082019050919050565b600060208201905081810360008301526117cf81611793565b9050919050565b7f4465736372697074696f6e2073686f756c64206e6f74206265206e756c6c0000600082015250565b600061180c601e836110b8565b9150611817826117d6565b602082019050919050565b6000602082019050818103600083015261183b816117ff565b9050919050565b6000819050919050565b6000819050919050565b600061187161186c61186784611842565b61184c565b61117c565b9050919050565b61188181611856565b82525050565b600060c08201905061189c60008301896111df565b81810360208301526118ae818861110d565b905081810360408301526118c2818761110d565b905081810360608301526118d6818661110d565b90506118e56080830185611878565b6118f260a08301846112a6565b97965050505050505056fea26469706673582212203e504a954f240499f8f9c161db728ed165d2dbc52c8b93505269e4598c417cdf64736f6c634300080b0033",
  "immutableReferences": {},
  "source": "// SPDX-License-Identifier: MIT\npragma solidity ^0.8.9;\n\ncontract Decentragram {\n    string public name;\n    uint256 public imageCount = 0;\n\n    mapping(uint256 => Image) public images;\n    mapping(address => uint256) public followersCount;\n    mapping(uint256 => uint256) public tipCount;\n    mapping(address => uint256) public followingCount;\n    mapping(address => address[]) public followers;\n    mapping(address => address[]) public following;\n    mapping(uint256 => Tip[]) public tips;\n\n    struct Tip {\n        uint256 amount;\n        address tipper;\n    }\n\n    struct Image {\n        uint256 id;\n        string hash;\n        string category;\n        string description;\n        uint256 tipAmount;\n        address payable author;\n    }\n\n    event ImageCreated(\n        uint256 id,\n        string hash,\n        string category,\n        string description,\n        uint256 tipAmount,\n        address payable author\n    );\n\n    event ImageTipped(\n        uint256 id,\n        string hash,\n        string description,\n        uint256 tipAmount,\n        address payable author\n    );\n\n    constructor() public {\n        name = \"Decentragram\";\n    }\n\n    function followSingle(address followingAddress) public {\n        followersCount[followingAddress] = followersCount[followingAddress] + 1;\n        followers[followingAddress].push(msg.sender);\n\n        followingCount[msg.sender] = followingCount[msg.sender] + 1;\n        following[msg.sender].push(followingAddress);\n    }\n\n    function uploadImage(\n        string memory _imgHash,\n        string memory _description,\n        string memory _category\n    ) public {\n        //+-Make sure the image hash exists:_\n        require(bytes(_imgHash).length > 0, \"Image should not be null\");\n\n        //+-Make sure image description exists:_\n        require(\n            bytes(_description).length > 0,\n            \"Description should not be null\"\n        );\n\n        //+-Make sure uploader address exists:_\n        // require(msg.sender != address(0));\n\n        //+-Increment image id:_\n        imageCount++;\n\n        //+-Add Image to the contract:_\n        images[imageCount] = Image(\n            imageCount,\n            _imgHash,\n            _category,\n            _description,\n            0,\n            payable(msg.sender)\n            // msg.sender\n        );\n\n        //+-Trigger an event:_\n        emit ImageCreated(\n            imageCount,\n            _imgHash,\n            _category,\n            _description,\n            0,\n            payable(msg.sender)\n        );\n    }\n\n    function tipImageOwner(uint256 _id) public payable {\n        //+-Make sure the id is valid:_\n        require(_id > 0 && _id <= imageCount);\n\n        //+-Fetch the image:_\n        Image memory _image = images[_id];\n\n        //+-Fetch the author:_\n        address payable _author = _image.author;\n\n        //+-Pay the author by sending them Ether:_\n        _author.transfer(msg.value);\n        // address(_author).transfer(msg.value);\n\n        //+-Increment the tip amount:_\n        _image.tipAmount = _image.tipAmount + msg.value;\n\n        //+-Update the image:_\n        images[_id] = _image;\n\n        // Add to Tips\n        tips[_id].push(Tip(msg.value, msg.sender));\n\n        tipCount[_id]++;\n\n        //+-Trigger an event:_\n        emit ImageTipped(\n            _id,\n            _image.hash,\n            _image.description,\n            _image.tipAmount,\n            _author\n        );\n    }\n}\n",
  "sourcePath": "/Users/hrushi/Projects/college/decentragram/contracts/decentragram.sol",
  "compiler": {
    "name": "solc",
    "version": "0.8.11+commit.d7f03943.Emscripten.clang"
  },
  "schemaVersion": "3.4.3",
  "updatedAt": "2021-12-29T13:47:42.144Z",
  "networkType": "ethereum",
  "devdoc": {
    "kind": "dev",
    "methods": {},
    "version": 1
  },
  "userdoc": {
    "kind": "user",
    "methods": {},
    "version": 1
  }
}